{
  "_format": "hh-sol-artifact-1",
  "contractName": "ShadowRollup",
  "sourceName": "contracts/ShadowRollup.sol",
  "abi": [
    {
      "inputs": [
        {
          "internalType": "address",
          "name": "_rollup",
          "type": "address"
        },
        {
          "internalType": "address",
          "name": "_verifier",
          "type": "address"
        }
      ],
      "stateMutability": "nonpayable",
      "type": "constructor"
    },
    {
      "anonymous": false,
      "inputs": [
        {
          "indexed": true,
          "internalType": "uint64",
          "name": "batchIndex",
          "type": "uint64"
        },
        {
          "indexed": false,
          "internalType": "address",
          "name": "challenger",
          "type": "address"
        },
        {
          "indexed": false,
          "internalType": "uint256",
          "name": "challengeDeposit",
          "type": "uint256"
        }
      ],
      "name": "ChallengeState",
      "type": "event"
    },
    {
      "anonymous": false,
      "inputs": [
        {
          "indexed": true,
          "internalType": "address",
          "name": "previousOwner",
          "type": "address"
        },
        {
          "indexed": true,
          "internalType": "address",
          "name": "newOwner",
          "type": "address"
        }
      ],
      "name": "OwnershipTransferred",
      "type": "event"
    },
    {
      "inputs": [
        {
          "internalType": "uint256",
          "name": "batchIndex",
          "type": "uint256"
        }
      ],
      "name": "batchInChallenge",
      "outputs": [
        {
          "internalType": "bool",
          "name": "",
          "type": "bool"
        }
      ],
      "stateMutability": "view",
      "type": "function"
    },
    {
      "inputs": [
        {
          "internalType": "uint64",
          "name": "batchIndex",
          "type": "uint64"
        }
      ],
      "name": "challengeState",
      "outputs": [],
      "stateMutability": "payable",
      "type": "function"
    },
    {
      "inputs": [
        {
          "internalType": "uint256",
          "name": "",
          "type": "uint256"
        }
      ],
      "name": "challenges",
      "outputs": [
        {
          "internalType": "uint64",
          "name": "batchIndex",
          "type": "uint64"
        },
        {
          "internalType": "address",
          "name": "challenger",
          "type": "address"
        },
        {
          "internalType": "uint256",
          "name": "challengeDeposit",
          "type": "uint256"
        },
        {
          "internalType": "uint256",
          "name": "startTime",
          "type": "uint256"
        },
        {
          "internalType": "bool",
          "name": "finished",
          "type": "bool"
        }
      ],
      "stateMutability": "view",
      "type": "function"
    },
    {
      "inputs": [
        {
          "internalType": "uint64",
          "name": "_batchIndex",
          "type": "uint64"
        },
        {
          "components": [
            {
              "internalType": "bytes32",
              "name": "prevStateRoot",
              "type": "bytes32"
            },
            {
              "internalType": "bytes32",
              "name": "postStateRoot",
              "type": "bytes32"
            },
            {
              "internalType": "bytes32",
              "name": "withdrawalRoot",
              "type": "bytes32"
            },
            {
              "internalType": "bytes32",
              "name": "dataHash",
              "type": "bytes32"
            },
            {
              "internalType": "bytes32",
              "name": "blobVersionedHash",
              "type": "bytes32"
            }
          ],
          "internalType": "struct ShadowRollup.BatchStore",
          "name": "_batchData",
          "type": "tuple"
        }
      ],
      "name": "commitBatch",
      "outputs": [],
      "stateMutability": "nonpayable",
      "type": "function"
    },
    {
      "inputs": [
        {
          "internalType": "uint256",
          "name": "",
          "type": "uint256"
        }
      ],
      "name": "committedBatchStores",
      "outputs": [
        {
          "internalType": "bytes32",
          "name": "prevStateRoot",
          "type": "bytes32"
        },
        {
          "internalType": "bytes32",
          "name": "postStateRoot",
          "type": "bytes32"
        },
        {
          "internalType": "bytes32",
          "name": "withdrawalRoot",
          "type": "bytes32"
        },
        {
          "internalType": "bytes32",
          "name": "dataHash",
          "type": "bytes32"
        },
        {
          "internalType": "bytes32",
          "name": "blobVersionedHash",
          "type": "bytes32"
        }
      ],
      "stateMutability": "view",
      "type": "function"
    },
    {
      "inputs": [
        {
          "internalType": "uint256",
          "name": "_batchIndex",
          "type": "uint256"
        }
      ],
      "name": "isBatchFinalized",
      "outputs": [
        {
          "internalType": "bool",
          "name": "",
          "type": "bool"
        }
      ],
      "stateMutability": "pure",
      "type": "function"
    },
    {
      "inputs": [],
      "name": "owner",
      "outputs": [
        {
          "internalType": "address",
          "name": "",
          "type": "address"
        }
      ],
      "stateMutability": "view",
      "type": "function"
    },
    {
      "inputs": [
        {
          "internalType": "uint64",
          "name": "_batchIndex",
          "type": "uint64"
        },
        {
          "internalType": "bytes",
          "name": "_aggrProof",
          "type": "bytes"
        },
        {
          "internalType": "bytes",
          "name": "_kzgData",
          "type": "bytes"
        }
      ],
      "name": "proveState",
      "outputs": [],
      "stateMutability": "nonpayable",
      "type": "function"
    },
    {
      "inputs": [],
      "name": "renounceOwnership",
      "outputs": [],
      "stateMutability": "nonpayable",
      "type": "function"
    },
    {
      "inputs": [],
      "name": "rollup",
      "outputs": [
        {
          "internalType": "address",
          "name": "",
          "type": "address"
        }
      ],
      "stateMutability": "view",
      "type": "function"
    },
    {
      "inputs": [
        {
          "internalType": "bytes",
          "name": "_combined",
          "type": "bytes"
        }
      ],
      "name": "splitUint256",
      "outputs": [
        {
          "internalType": "bytes",
          "name": "",
          "type": "bytes"
        }
      ],
      "stateMutability": "pure",
      "type": "function"
    },
    {
      "inputs": [
        {
          "internalType": "address",
          "name": "newOwner",
          "type": "address"
        }
      ],
      "name": "transferOwnership",
      "outputs": [],
      "stateMutability": "nonpayable",
      "type": "function"
    },
    {
      "inputs": [
        {
          "internalType": "address",
          "name": "_rollup",
          "type": "address"
        }
      ],
      "name": "updateRollup",
      "outputs": [],
      "stateMutability": "nonpayable",
      "type": "function"
    },
    {
      "inputs": [
        {
          "internalType": "address",
          "name": "_verifier",
          "type": "address"
        }
      ],
      "name": "updateVerifier",
      "outputs": [],
      "stateMutability": "nonpayable",
      "type": "function"
    },
    {
      "inputs": [],
      "name": "zkevm_verifier",
      "outputs": [
        {
          "internalType": "address",
          "name": "",
          "type": "address"
        }
      ],
      "stateMutability": "view",
      "type": "function"
    }
  ],
  "bytecode": "0x60806040523480156200001157600080fd5b506040516200220238038062002202833981810160405281019062000037919062000217565b620000576200004b620000e160201b60201c565b620000e960201b60201c565b81600160006101000a81548173ffffffffffffffffffffffffffffffffffffffff021916908373ffffffffffffffffffffffffffffffffffffffff16021790555080600260006101000a81548173ffffffffffffffffffffffffffffffffffffffff021916908373ffffffffffffffffffffffffffffffffffffffff16021790555050506200025e565b600033905090565b60008060009054906101000a900473ffffffffffffffffffffffffffffffffffffffff169050816000806101000a81548173ffffffffffffffffffffffffffffffffffffffff021916908373ffffffffffffffffffffffffffffffffffffffff1602179055508173ffffffffffffffffffffffffffffffffffffffff168173ffffffffffffffffffffffffffffffffffffffff167f8be0079c531659141344cd1fd0a4f28419497f9722a3daafe3b4186f6b6457e060405160405180910390a35050565b600080fd5b600073ffffffffffffffffffffffffffffffffffffffff82169050919050565b6000620001df82620001b2565b9050919050565b620001f181620001d2565b8114620001fd57600080fd5b50565b6000815190506200021181620001e6565b92915050565b60008060408385031215620002315762000230620001ad565b5b6000620002418582860162000200565b9250506020620002548582860162000200565b9150509250929050565b611f94806200026e6000396000f3fe6080604052600436106100e85760003560e01c80638f1d37761161008a578063d181ed7611610059578063d181ed76146102ef578063d87e7df114610318578063de8b303514610341578063f2fde38b1461037e576100e8565b80638f1d37761461021d57806397fc007c1461025e578063c7b40afe14610287578063cb23bcb5146102c4576100e8565b806336622a30116100c657806336622a3014610196578063715018a6146101bf5780638d644bb7146101d65780638da5cb5b146101f2576100e8565b80630b79cdda146100ed578063116a1f421461012e578063331e8f7f1461016b575b600080fd5b3480156100f957600080fd5b50610114600480360381019061010f91906110da565b6103a7565b604051610125959493929190611120565b60405180910390f35b34801561013a57600080fd5b50610155600480360381019061015091906110da565b6103dd565b604051610162919061118e565b60405180910390f35b34801561017757600080fd5b5061018061042a565b60405161018d91906111ea565b60405180910390f35b3480156101a257600080fd5b506101bd60048036038101906101b891906112aa565b610450565b005b3480156101cb57600080fd5b506101d46107f3565b005b6101f060048036038101906101eb919061133f565b610807565b005b3480156101fe57600080fd5b50610207610978565b60405161021491906111ea565b60405180910390f35b34801561022957600080fd5b50610244600480360381019061023f91906110da565b6109a1565b60405161025595949392919061138a565b60405180910390f35b34801561026a57600080fd5b5061028560048036038101906102809190611409565b610a18565b005b34801561029357600080fd5b506102ae60048036038101906102a99190611577565b610a64565b6040516102bb919061163f565b60405180910390f35b3480156102d057600080fd5b506102d9610b61565b6040516102e691906111ea565b60405180910390f35b3480156102fb57600080fd5b5061031660048036038101906103119190611685565b610b87565b005b34801561032457600080fd5b5061033f600480360381019061033a9190611409565b610bb8565b005b34801561034d57600080fd5b50610368600480360381019061036391906110da565b610c04565b604051610375919061118e565b60405180910390f35b34801561038a57600080fd5b506103a560048036038101906103a09190611409565b610ca0565b005b60036020528060005260406000206000915090508060000154908060010154908060020154908060030154908060040154905085565b6000808211610421576040517f08c379a000000000000000000000000000000000000000000000000000000000815260040161041890611722565b60405180910390fd5b60009050919050565b600260009054906101000a900473ffffffffffffffffffffffffffffffffffffffff1681565b60008484905011610496576040517f08c379a000000000000000000000000000000000000000000000000000000000815260040161048d9061178e565b60405180910390fd5b608082829050146104dc576040517f08c379a00000000000000000000000000000000000000000000000000000000081526004016104d3906117fa565b60405180910390fd5b600082826020906050926104f293929190611824565b8080601f016020809104026020016040519081016040528093929190818152602001838380828437600081840152601f19601f82011690508083019250505050505050905060006105438783610d23565b90506000600360008967ffffffffffffffff1681526020019081526020016000206004015482868660405160200161057e94939291906118e1565b6040516020818303038152906040529050600080600a73ffffffffffffffffffffffffffffffffffffffff16836040516105b89190611918565b600060405180830381855afa9150503d80600081146105f3576040519150601f19603f3d011682016040523d82523d6000602084013e6105f8565b606091505b50915091508161063d576040517f08c379a0000000000000000000000000000000000000000000000000000000008152600401610634906119a1565b60405180910390fd5b60008180602001905181019061065391906119d6565b9150507f73eda753299d7d483339d80809a1d80553bda402fffe5bfeffffffff0000000181146106b8576040517f08c379a00000000000000000000000000000000000000000000000000000000081526004016106af90611a62565b60405180910390fd5b600061071b8c878b8b6000906020926106d393929190611824565b8080601f016020809104026020016040519081016040528093929190818152602001838380828437600081840152601f19601f82011690508083019250505050505050610de3565b9050600260009054906101000a900473ffffffffffffffffffffffffffffffffffffffff1673ffffffffffffffffffffffffffffffffffffffff16636b4063418c8c846040518463ffffffff1660e01b815260040161077c93929190611aaf565b60006040518083038186803b15801561079457600080fd5b505afa1580156107a8573d6000803e3d6000fd5b505050506001600460008e67ffffffffffffffff16815260200190815260200160002060030160006101000a81548160ff021916908315150217905550505050505050505050505050565b6107fb610f46565b6108056000610fc4565b565b61080f610f46565b6040518060a001604052808267ffffffffffffffff168152602001610832611088565b73ffffffffffffffffffffffffffffffffffffffff16815260200134815260200142815260200160001515815250600460008367ffffffffffffffff16815260200190815260200160002060008201518160000160006101000a81548167ffffffffffffffff021916908367ffffffffffffffff16021790555060208201518160000160086101000a81548173ffffffffffffffffffffffffffffffffffffffff021916908373ffffffffffffffffffffffffffffffffffffffff160217905550604082015181600101556060820151816002015560808201518160030160006101000a81548160ff0219169083151502179055509050508067ffffffffffffffff167f3a6ea19df25b49e7624e313ce7c1ab23984238e93727260db56a81735b1b997661095e611088565b3460405161096d929190611ae1565b60405180910390a250565b60008060009054906101000a900473ffffffffffffffffffffffffffffffffffffffff16905090565b60046020528060005260406000206000915090508060000160009054906101000a900467ffffffffffffffff16908060000160089054906101000a900473ffffffffffffffffffffffffffffffffffffffff16908060010154908060020154908060030160009054906101000a900460ff16905085565b610a20610f46565b80600260006101000a81548173ffffffffffffffffffffffffffffffffffffffff021916908373ffffffffffffffffffffffffffffffffffffffff16021790555050565b60606020825114610aaa576040517f08c379a0000000000000000000000000000000000000000000000000000000008152600401610aa190611b56565b60405180910390fd5b60006020830151905060008060006affffffffffffffffffffff841692506affffffffffffffffffffff605885901c1691506a7fffffffffffffffffffff60b085901c1690506000606067ffffffffffffffff811115610b0d57610b0c61144c565b5b6040519080825280601f01601f191660200182016040528015610b3f5781602001600182028036833780820191505090505b5090508360208201528260408201528160608201528095505050505050919050565b600160009054906101000a900473ffffffffffffffffffffffffffffffffffffffff1681565b80600360008467ffffffffffffffff1681526020019081526020016000208181610bb19190611cef565b9050505050565b610bc0610f46565b80600160006101000a81548173ffffffffffffffffffffffffffffffffffffffff021916908373ffffffffffffffffffffffffffffffffffffffff16021790555050565b60008073ffffffffffffffffffffffffffffffffffffffff166004600084815260200190815260200160002060000160089054906101000a900473ffffffffffffffffffffffffffffffffffffffff1673ffffffffffffffffffffffffffffffffffffffff1614158015610c9957506004600083815260200190815260200160002060030160009054906101000a900460ff16155b9050919050565b610ca8610f46565b600073ffffffffffffffffffffffffffffffffffffffff168173ffffffffffffffffffffffffffffffffffffffff1603610d17576040517f08c379a0000000000000000000000000000000000000000000000000000000008152600401610d0e90611d6f565b60405180910390fd5b610d2081610fc4565b50565b6060600082600360008667ffffffffffffffff16815260200190815260200160002060030154604051602001610d5a929190611d8f565b60405160208183030381529060405280519060200120604051602001610d809190611db7565b6040516020818303038152906040529050600060f81b81600081518110610daa57610da9611dd2565b5b60200101907effffffffffffffffffffffffffffffffffffffffffffffffffffffffffffff1916908160001a9053508091505092915050565b600080600160009054906101000a900473ffffffffffffffffffffffffffffffffffffffff1673ffffffffffffffffffffffffffffffffffffffff166303c7f4af6040518163ffffffff1660e01b8152600401602060405180830381865afa158015610e53573d6000803e3d6000fd5b505050506040513d601f19601f82011682018060405250810190610e779190611e16565b905080600360008767ffffffffffffffff16815260200190815260200160002060000154600360008867ffffffffffffffff16815260200190815260200160002060010154600360008967ffffffffffffffff16815260200190815260200160002060020154600360008a67ffffffffffffffff16815260200190815260200160002060030154610f0789610a64565b610f1089610a64565b604051602001610f269796959493929190611e79565b604051602081830303815290604052805190602001209150509392505050565b610f4e611088565b73ffffffffffffffffffffffffffffffffffffffff16610f6c610978565b73ffffffffffffffffffffffffffffffffffffffff1614610fc2576040517f08c379a0000000000000000000000000000000000000000000000000000000008152600401610fb990611f3e565b60405180910390fd5b565b60008060009054906101000a900473ffffffffffffffffffffffffffffffffffffffff169050816000806101000a81548173ffffffffffffffffffffffffffffffffffffffff021916908373ffffffffffffffffffffffffffffffffffffffff1602179055508173ffffffffffffffffffffffffffffffffffffffff168173ffffffffffffffffffffffffffffffffffffffff167f8be0079c531659141344cd1fd0a4f28419497f9722a3daafe3b4186f6b6457e060405160405180910390a35050565b600033905090565b6000604051905090565b600080fd5b600080fd5b6000819050919050565b6110b7816110a4565b81146110c257600080fd5b50565b6000813590506110d4816110ae565b92915050565b6000602082840312156110f0576110ef61109a565b5b60006110fe848285016110c5565b91505092915050565b6000819050919050565b61111a81611107565b82525050565b600060a0820190506111356000830188611111565b6111426020830187611111565b61114f6040830186611111565b61115c6060830185611111565b6111696080830184611111565b9695505050505050565b60008115159050919050565b61118881611173565b82525050565b60006020820190506111a3600083018461117f565b92915050565b600073ffffffffffffffffffffffffffffffffffffffff82169050919050565b60006111d4826111a9565b9050919050565b6111e4816111c9565b82525050565b60006020820190506111ff60008301846111db565b92915050565b600067ffffffffffffffff82169050919050565b61122281611205565b811461122d57600080fd5b50565b60008135905061123f81611219565b92915050565b600080fd5b600080fd5b600080fd5b60008083601f84011261126a57611269611245565b5b8235905067ffffffffffffffff8111156112875761128661124a565b5b6020830191508360018202830111156112a3576112a261124f565b5b9250929050565b6000806000806000606086880312156112c6576112c561109a565b5b60006112d488828901611230565b955050602086013567ffffffffffffffff8111156112f5576112f461109f565b5b61130188828901611254565b9450945050604086013567ffffffffffffffff8111156113245761132361109f565b5b61133088828901611254565b92509250509295509295909350565b6000602082840312156113555761135461109a565b5b600061136384828501611230565b91505092915050565b61137581611205565b82525050565b611384816110a4565b82525050565b600060a08201905061139f600083018861136c565b6113ac60208301876111db565b6113b9604083018661137b565b6113c6606083018561137b565b6113d3608083018461117f565b9695505050505050565b6113e6816111c9565b81146113f157600080fd5b50565b600081359050611403816113dd565b92915050565b60006020828403121561141f5761141e61109a565b5b600061142d848285016113f4565b91505092915050565b600080fd5b6000601f19601f8301169050919050565b7f4e487b7100000000000000000000000000000000000000000000000000000000600052604160045260246000fd5b6114848261143b565b810181811067ffffffffffffffff821117156114a3576114a261144c565b5b80604052505050565b60006114b6611090565b90506114c2828261147b565b919050565b600067ffffffffffffffff8211156114e2576114e161144c565b5b6114eb8261143b565b9050602081019050919050565b82818337600083830152505050565b600061151a611515846114c7565b6114ac565b90508281526020810184848401111561153657611535611436565b5b6115418482856114f8565b509392505050565b600082601f83011261155e5761155d611245565b5b813561156e848260208601611507565b91505092915050565b60006020828403121561158d5761158c61109a565b5b600082013567ffffffffffffffff8111156115ab576115aa61109f565b5b6115b784828501611549565b91505092915050565b600081519050919050565b600082825260208201905092915050565b60005b838110156115fa5780820151818401526020810190506115df565b60008484015250505050565b6000611611826115c0565b61161b81856115cb565b935061162b8185602086016115dc565b6116348161143b565b840191505092915050565b600060208201905081810360008301526116598184611606565b905092915050565b600080fd5b600060a0828403121561167c5761167b611661565b5b81905092915050565b60008060c0838503121561169c5761169b61109a565b5b60006116aa85828601611230565b92505060206116bb85828601611666565b9150509250929050565b600082825260208201905092915050565b7f696e76616c6964206261746368496e6465780000000000000000000000000000600082015250565b600061170c6012836116c5565b9150611717826116d6565b602082019050919050565b6000602082019050818103600083015261173b816116ff565b9050919050565b7f496e76616c69642070726f6f6600000000000000000000000000000000000000600082015250565b6000611778600d836116c5565b915061178382611742565b602082019050919050565b600060208201905081810360008301526117a78161176b565b9050919050565b7f496e76616c6964204b5a47206461746100000000000000000000000000000000600082015250565b60006117e46010836116c5565b91506117ef826117ae565b602082019050919050565b60006020820190508181036000830152611813816117d7565b9050919050565b600080fd5b600080fd5b600080858511156118385761183761181a565b5b838611156118495761184861181f565b5b6001850283019150848603905094509492505050565b6000819050919050565b61187a61187582611107565b61185f565b82525050565b600081905092915050565b6000611896826115c0565b6118a08185611880565b93506118b08185602086016115dc565b80840191505092915050565b60006118c88385611880565b93506118d58385846114f8565b82840190509392505050565b60006118ed8287611869565b6020820191506118fd828661188b565b915061190a8284866118bc565b915081905095945050505050565b6000611924828461188b565b915081905092915050565b7f6661696c656420746f2063616c6c20706f696e74206576616c756174696f6e2060008201527f707265636f6d70696c6500000000000000000000000000000000000000000000602082015250565b600061198b602a836116c5565b91506119968261192f565b604082019050919050565b600060208201905081810360008301526119ba8161197e565b9050919050565b6000815190506119d0816110ae565b92915050565b600080604083850312156119ed576119ec61109a565b5b60006119fb858286016119c1565b9250506020611a0c858286016119c1565b9150509250929050565b7f707265636f6d70696c6520756e6578706563746564206f757470757400000000600082015250565b6000611a4c601c836116c5565b9150611a5782611a16565b602082019050919050565b60006020820190508181036000830152611a7b81611a3f565b9050919050565b6000611a8e83856115cb565b9350611a9b8385846114f8565b611aa48361143b565b840190509392505050565b60006040820190508181036000830152611aca818587611a82565b9050611ad96020830184611111565b949350505050565b6000604082019050611af660008301856111db565b611b03602083018461137b565b9392505050565b7f496e707574206c656e677468206d757374206265203332206279746573000000600082015250565b6000611b40601d836116c5565b9150611b4b82611b0a565b602082019050919050565b60006020820190508181036000830152611b6f81611b33565b9050919050565b611b7f81611107565b8114611b8a57600080fd5b50565b60008135611b9a81611b76565b80915050919050565b60008160001b9050919050565b60007fffffffffffffffffffffffffffffffffffffffffffffffffffffffffffffffff611bdc84611ba3565b9350801983169250808416831791505092915050565b6000611bfd82611107565b9050919050565b60008160001c9050919050565b6000611c1c82611c04565b9050919050565b611c2c82611bf2565b611c3f611c3882611c11565b8354611bb0565b8255505050565b600081016000830180611c5881611b8d565b9050611c648184611c23565b505050600181016020830180611c7981611b8d565b9050611c858184611c23565b505050600281016040830180611c9a81611b8d565b9050611ca68184611c23565b505050600381016060830180611cbb81611b8d565b9050611cc78184611c23565b505050600481016080830180611cdc81611b8d565b9050611ce88184611c23565b5050505050565b611cf98282611c46565b5050565b7f4f776e61626c653a206e6577206f776e657220697320746865207a65726f206160008201527f6464726573730000000000000000000000000000000000000000000000000000602082015250565b6000611d596026836116c5565b9150611d6482611cfd565b604082019050919050565b60006020820190508181036000830152611d8881611d4c565b9050919050565b6000611d9b828561188b565b9150611da78284611869565b6020820191508190509392505050565b6000602082019050611dcc6000830184611111565b92915050565b7f4e487b7100000000000000000000000000000000000000000000000000000000600052603260045260246000fd5b600081519050611e1081611219565b92915050565b600060208284031215611e2c57611e2b61109a565b5b6000611e3a84828501611e01565b91505092915050565b60008160c01b9050919050565b6000611e5b82611e43565b9050919050565b611e73611e6e82611205565b611e50565b82525050565b6000611e85828a611e62565b600882019150611e958289611869565b602082019150611ea58288611869565b602082019150611eb58287611869565b602082019150611ec58286611869565b602082019150611ed5828561188b565b9150611ee1828461188b565b915081905098975050505050505050565b7f4f776e61626c653a2063616c6c6572206973206e6f7420746865206f776e6572600082015250565b6000611f286020836116c5565b9150611f3382611ef2565b602082019050919050565b60006020820190508181036000830152611f5781611f1b565b905091905056fea264697066735822122056301083bf779bffc84a93ed64186775effc7ad79ae6d7db0858b281099cbbed64736f6c63430008180033",
  "linkReferences": {},
  "deployedLinkReferences": {}
}