{
  "_format": "hh-sol-artifact-1",
  "contractName": "ShadowRollup",
  "sourceName": "contracts/ShadowRollup.sol",
  "abi": [
    {
      "inputs": [
        {
          "internalType": "address",
          "name": "_rollup",
          "type": "address"
        },
        {
          "internalType": "address",
          "name": "_verifier",
          "type": "address"
        }
      ],
      "stateMutability": "nonpayable",
      "type": "constructor"
    },
    {
      "anonymous": false,
      "inputs": [
        {
          "indexed": true,
          "internalType": "uint64",
          "name": "batchIndex",
          "type": "uint64"
        },
        {
          "indexed": false,
          "internalType": "address",
          "name": "challenger",
          "type": "address"
        },
        {
          "indexed": false,
          "internalType": "uint256",
          "name": "challengeDeposit",
          "type": "uint256"
        }
      ],
      "name": "ChallengeState",
      "type": "event"
    },
    {
      "anonymous": false,
      "inputs": [
        {
          "indexed": true,
          "internalType": "address",
          "name": "previousOwner",
          "type": "address"
        },
        {
          "indexed": true,
          "internalType": "address",
          "name": "newOwner",
          "type": "address"
        }
      ],
      "name": "OwnershipTransferred",
      "type": "event"
    },
    {
      "inputs": [
        {
          "internalType": "uint256",
          "name": "batchIndex",
          "type": "uint256"
        }
      ],
      "name": "batchInChallenge",
      "outputs": [
        {
          "internalType": "bool",
          "name": "",
          "type": "bool"
        }
      ],
      "stateMutability": "view",
      "type": "function"
    },
    {
      "inputs": [
        {
          "internalType": "uint64",
          "name": "batchIndex",
          "type": "uint64"
        }
      ],
      "name": "challengeState",
      "outputs": [],
      "stateMutability": "payable",
      "type": "function"
    },
    {
      "inputs": [
        {
          "internalType": "uint256",
          "name": "",
          "type": "uint256"
        }
      ],
      "name": "challenges",
      "outputs": [
        {
          "internalType": "uint64",
          "name": "batchIndex",
          "type": "uint64"
        },
        {
          "internalType": "address",
          "name": "challenger",
          "type": "address"
        },
        {
          "internalType": "uint256",
          "name": "challengeDeposit",
          "type": "uint256"
        },
        {
          "internalType": "uint256",
          "name": "startTime",
          "type": "uint256"
        },
        {
          "internalType": "bool",
          "name": "finished",
          "type": "bool"
        }
      ],
      "stateMutability": "view",
      "type": "function"
    },
    {
      "inputs": [
        {
          "internalType": "uint64",
          "name": "_batchIndex",
          "type": "uint64"
        },
        {
          "components": [
            {
              "internalType": "bytes32",
              "name": "prevStateRoot",
              "type": "bytes32"
            },
            {
              "internalType": "bytes32",
              "name": "postStateRoot",
              "type": "bytes32"
            },
            {
              "internalType": "bytes32",
              "name": "withdrawalRoot",
              "type": "bytes32"
            },
            {
              "internalType": "bytes32",
              "name": "dataHash",
              "type": "bytes32"
            },
            {
              "internalType": "bytes32",
              "name": "blobVersionedHash",
              "type": "bytes32"
            }
          ],
          "internalType": "struct ShadowRollup.BatchStore",
          "name": "_batchData",
          "type": "tuple"
        }
      ],
      "name": "commitBatch",
      "outputs": [],
      "stateMutability": "nonpayable",
      "type": "function"
    },
    {
      "inputs": [
        {
          "internalType": "uint256",
          "name": "",
          "type": "uint256"
        }
      ],
      "name": "committedBatchStores",
      "outputs": [
        {
          "internalType": "bytes32",
          "name": "prevStateRoot",
          "type": "bytes32"
        },
        {
          "internalType": "bytes32",
          "name": "postStateRoot",
          "type": "bytes32"
        },
        {
          "internalType": "bytes32",
          "name": "withdrawalRoot",
          "type": "bytes32"
        },
        {
          "internalType": "bytes32",
          "name": "dataHash",
          "type": "bytes32"
        },
        {
          "internalType": "bytes32",
          "name": "blobVersionedHash",
          "type": "bytes32"
        }
      ],
      "stateMutability": "view",
      "type": "function"
    },
    {
      "inputs": [
        {
          "internalType": "uint256",
          "name": "_batchIndex",
          "type": "uint256"
        }
      ],
      "name": "isBatchFinalized",
      "outputs": [
        {
          "internalType": "bool",
          "name": "",
          "type": "bool"
        }
      ],
      "stateMutability": "pure",
      "type": "function"
    },
    {
      "inputs": [],
      "name": "owner",
      "outputs": [
        {
          "internalType": "address",
          "name": "",
          "type": "address"
        }
      ],
      "stateMutability": "view",
      "type": "function"
    },
    {
      "inputs": [
        {
          "internalType": "uint64",
          "name": "_batchIndex",
          "type": "uint64"
        },
        {
          "internalType": "bytes",
          "name": "_aggrProof",
          "type": "bytes"
        },
        {
          "internalType": "bytes",
          "name": "_kzgData",
          "type": "bytes"
        }
      ],
      "name": "proveState",
      "outputs": [],
      "stateMutability": "nonpayable",
      "type": "function"
    },
    {
      "inputs": [],
      "name": "renounceOwnership",
      "outputs": [],
      "stateMutability": "nonpayable",
      "type": "function"
    },
    {
      "inputs": [],
      "name": "rollup",
      "outputs": [
        {
          "internalType": "address",
          "name": "",
          "type": "address"
        }
      ],
      "stateMutability": "view",
      "type": "function"
    },
    {
      "inputs": [
        {
          "internalType": "bytes",
          "name": "_combined",
          "type": "bytes"
        }
      ],
      "name": "splitUint256",
      "outputs": [
        {
          "internalType": "bytes",
          "name": "",
          "type": "bytes"
        }
      ],
      "stateMutability": "pure",
      "type": "function"
    },
    {
      "inputs": [
        {
          "internalType": "address",
          "name": "newOwner",
          "type": "address"
        }
      ],
      "name": "transferOwnership",
      "outputs": [],
      "stateMutability": "nonpayable",
      "type": "function"
    },
    {
      "inputs": [
        {
          "internalType": "address",
          "name": "_rollup",
          "type": "address"
        }
      ],
      "name": "updateRollup",
      "outputs": [],
      "stateMutability": "nonpayable",
      "type": "function"
    },
    {
      "inputs": [
        {
          "internalType": "address",
          "name": "_verifier",
          "type": "address"
        }
      ],
      "name": "updateVerifier",
      "outputs": [],
      "stateMutability": "nonpayable",
      "type": "function"
    },
    {
      "inputs": [],
      "name": "zkevm_verifier",
      "outputs": [
        {
          "internalType": "address",
          "name": "",
          "type": "address"
        }
      ],
      "stateMutability": "view",
      "type": "function"
    }
  ],
  "bytecode": "0x60806040523480156200001157600080fd5b506040516200212d3803806200212d833981810160405281019062000037919062000217565b620000576200004b620000e160201b60201c565b620000e960201b60201c565b81600160006101000a81548173ffffffffffffffffffffffffffffffffffffffff021916908373ffffffffffffffffffffffffffffffffffffffff16021790555080600260006101000a81548173ffffffffffffffffffffffffffffffffffffffff021916908373ffffffffffffffffffffffffffffffffffffffff16021790555050506200025e565b600033905090565b60008060009054906101000a900473ffffffffffffffffffffffffffffffffffffffff169050816000806101000a81548173ffffffffffffffffffffffffffffffffffffffff021916908373ffffffffffffffffffffffffffffffffffffffff1602179055508173ffffffffffffffffffffffffffffffffffffffff168173ffffffffffffffffffffffffffffffffffffffff167f8be0079c531659141344cd1fd0a4f28419497f9722a3daafe3b4186f6b6457e060405160405180910390a35050565b600080fd5b600073ffffffffffffffffffffffffffffffffffffffff82169050919050565b6000620001df82620001b2565b9050919050565b620001f181620001d2565b8114620001fd57600080fd5b50565b6000815190506200021181620001e6565b92915050565b60008060408385031215620002315762000230620001ad565b5b6000620002418582860162000200565b9250506020620002548582860162000200565b9150509250929050565b611ebf806200026e6000396000f3fe6080604052600436106100e85760003560e01c80638f1d37761161008a578063d181ed7611610059578063d181ed76146102ef578063d87e7df114610318578063de8b303514610341578063f2fde38b1461037e576100e8565b80638f1d37761461021d57806397fc007c1461025e578063c7b40afe14610287578063cb23bcb5146102c4576100e8565b806336622a30116100c657806336622a3014610196578063715018a6146101bf5780638d644bb7146101d65780638da5cb5b146101f2576100e8565b80630b79cdda146100ed578063116a1f421461012e578063331e8f7f1461016b575b600080fd5b3480156100f957600080fd5b50610114600480360381019061010f9190611047565b6103a7565b60405161012595949392919061108d565b60405180910390f35b34801561013a57600080fd5b5061015560048036038101906101509190611047565b6103dd565b60405161016291906110fb565b60405180910390f35b34801561017757600080fd5b5061018061042a565b60405161018d9190611157565b60405180910390f35b3480156101a257600080fd5b506101bd60048036038101906101b89190611217565b610450565b005b3480156101cb57600080fd5b506101d46107f3565b005b6101f060048036038101906101eb91906112ac565b610807565b005b3480156101fe57600080fd5b50610207610978565b6040516102149190611157565b60405180910390f35b34801561022957600080fd5b50610244600480360381019061023f9190611047565b6109a1565b6040516102559594939291906112f7565b60405180910390f35b34801561026a57600080fd5b5061028560048036038101906102809190611376565b610a18565b005b34801561029357600080fd5b506102ae60048036038101906102a991906114e4565b610a64565b6040516102bb91906115ac565b60405180910390f35b3480156102d057600080fd5b506102d9610b61565b6040516102e69190611157565b60405180910390f35b3480156102fb57600080fd5b50610316600480360381019061031191906115f2565b610b87565b005b34801561032457600080fd5b5061033f600480360381019061033a9190611376565b610bb8565b005b34801561034d57600080fd5b5061036860048036038101906103639190611047565b610c04565b60405161037591906110fb565b60405180910390f35b34801561038a57600080fd5b506103a560048036038101906103a09190611376565b610ca0565b005b60036020528060005260406000206000915090508060000154908060010154908060020154908060030154908060040154905085565b6000808211610421576040517f08c379a00000000000000000000000000000000000000000000000000000000081526004016104189061168f565b60405180910390fd5b60009050919050565b600260009054906101000a900473ffffffffffffffffffffffffffffffffffffffff1681565b60008484905011610496576040517f08c379a000000000000000000000000000000000000000000000000000000000815260040161048d906116fb565b60405180910390fd5b608082829050146104dc576040517f08c379a00000000000000000000000000000000000000000000000000000000081526004016104d390611767565b60405180910390fd5b600082826020906050926104f293929190611791565b8080601f016020809104026020016040519081016040528093929190818152602001838380828437600081840152601f19601f82011690508083019250505050505050905060006105438783610d23565b90506000600360008967ffffffffffffffff1681526020019081526020016000206004015482868660405160200161057e949392919061184e565b6040516020818303038152906040529050600080600a73ffffffffffffffffffffffffffffffffffffffff16836040516105b89190611885565b600060405180830381855afa9150503d80600081146105f3576040519150601f19603f3d011682016040523d82523d6000602084013e6105f8565b606091505b50915091508161063d576040517f08c379a00000000000000000000000000000000000000000000000000000000081526004016106349061190e565b60405180910390fd5b6000818060200190518101906106539190611943565b9150507f73eda753299d7d483339d80809a1d80553bda402fffe5bfeffffffff0000000181146106b8576040517f08c379a00000000000000000000000000000000000000000000000000000000081526004016106af906119cf565b60405180910390fd5b600061071b8c878b8b6000906020926106d393929190611791565b8080601f016020809104026020016040519081016040528093929190818152602001838380828437600081840152601f19601f82011690508083019250505050505050610de3565b9050600260009054906101000a900473ffffffffffffffffffffffffffffffffffffffff1673ffffffffffffffffffffffffffffffffffffffff16636b4063418c8c846040518463ffffffff1660e01b815260040161077c93929190611a1c565b60006040518083038186803b15801561079457600080fd5b505afa1580156107a8573d6000803e3d6000fd5b505050506001600460008e67ffffffffffffffff16815260200190815260200160002060030160006101000a81548160ff021916908315150217905550505050505050505050505050565b6107fb610eb3565b6108056000610f31565b565b61080f610eb3565b6040518060a001604052808267ffffffffffffffff168152602001610832610ff5565b73ffffffffffffffffffffffffffffffffffffffff16815260200134815260200142815260200160001515815250600460008367ffffffffffffffff16815260200190815260200160002060008201518160000160006101000a81548167ffffffffffffffff021916908367ffffffffffffffff16021790555060208201518160000160086101000a81548173ffffffffffffffffffffffffffffffffffffffff021916908373ffffffffffffffffffffffffffffffffffffffff160217905550604082015181600101556060820151816002015560808201518160030160006101000a81548160ff0219169083151502179055509050508067ffffffffffffffff167f3a6ea19df25b49e7624e313ce7c1ab23984238e93727260db56a81735b1b997661095e610ff5565b3460405161096d929190611a4e565b60405180910390a250565b60008060009054906101000a900473ffffffffffffffffffffffffffffffffffffffff16905090565b60046020528060005260406000206000915090508060000160009054906101000a900467ffffffffffffffff16908060000160089054906101000a900473ffffffffffffffffffffffffffffffffffffffff16908060010154908060020154908060030160009054906101000a900460ff16905085565b610a20610eb3565b80600260006101000a81548173ffffffffffffffffffffffffffffffffffffffff021916908373ffffffffffffffffffffffffffffffffffffffff16021790555050565b60606020825114610aaa576040517f08c379a0000000000000000000000000000000000000000000000000000000008152600401610aa190611ac3565b60405180910390fd5b60006020830151905060008060006affffffffffffffffffffff841692506affffffffffffffffffffff605885901c1691506a7fffffffffffffffffffff60b085901c1690506000606067ffffffffffffffff811115610b0d57610b0c6113b9565b5b6040519080825280601f01601f191660200182016040528015610b3f5781602001600182028036833780820191505090505b5090508360208201528260408201528160608201528095505050505050919050565b600160009054906101000a900473ffffffffffffffffffffffffffffffffffffffff1681565b80600360008467ffffffffffffffff1681526020019081526020016000208181610bb19190611c5c565b9050505050565b610bc0610eb3565b80600160006101000a81548173ffffffffffffffffffffffffffffffffffffffff021916908373ffffffffffffffffffffffffffffffffffffffff16021790555050565b60008073ffffffffffffffffffffffffffffffffffffffff166004600084815260200190815260200160002060000160089054906101000a900473ffffffffffffffffffffffffffffffffffffffff1673ffffffffffffffffffffffffffffffffffffffff1614158015610c9957506004600083815260200190815260200160002060030160009054906101000a900460ff16155b9050919050565b610ca8610eb3565b600073ffffffffffffffffffffffffffffffffffffffff168173ffffffffffffffffffffffffffffffffffffffff1603610d17576040517f08c379a0000000000000000000000000000000000000000000000000000000008152600401610d0e90611cdc565b60405180910390fd5b610d2081610f31565b50565b6060600082600360008667ffffffffffffffff16815260200190815260200160002060030154604051602001610d5a929190611cfc565b60405160208183030381529060405280519060200120604051602001610d809190611d24565b6040516020818303038152906040529050600060f81b81600081518110610daa57610da9611d3f565b5b60200101907effffffffffffffffffffffffffffffffffffffffffffffffffffffffffffff1916908160001a9053508091505092915050565b600061cf55600360008667ffffffffffffffff16815260200190815260200160002060000154600360008767ffffffffffffffff16815260200190815260200160002060010154600360008867ffffffffffffffff16815260200190815260200160002060020154600360008967ffffffffffffffff16815260200190815260200160002060030154610e7588610a64565b610e7e88610a64565b604051602001610e949796959493929190611da4565b6040516020818303038152906040528051906020012090509392505050565b610ebb610ff5565b73ffffffffffffffffffffffffffffffffffffffff16610ed9610978565b73ffffffffffffffffffffffffffffffffffffffff1614610f2f576040517f08c379a0000000000000000000000000000000000000000000000000000000008152600401610f2690611e69565b60405180910390fd5b565b60008060009054906101000a900473ffffffffffffffffffffffffffffffffffffffff169050816000806101000a81548173ffffffffffffffffffffffffffffffffffffffff021916908373ffffffffffffffffffffffffffffffffffffffff1602179055508173ffffffffffffffffffffffffffffffffffffffff168173ffffffffffffffffffffffffffffffffffffffff167f8be0079c531659141344cd1fd0a4f28419497f9722a3daafe3b4186f6b6457e060405160405180910390a35050565b600033905090565b6000604051905090565b600080fd5b600080fd5b6000819050919050565b61102481611011565b811461102f57600080fd5b50565b6000813590506110418161101b565b92915050565b60006020828403121561105d5761105c611007565b5b600061106b84828501611032565b91505092915050565b6000819050919050565b61108781611074565b82525050565b600060a0820190506110a2600083018861107e565b6110af602083018761107e565b6110bc604083018661107e565b6110c9606083018561107e565b6110d6608083018461107e565b9695505050505050565b60008115159050919050565b6110f5816110e0565b82525050565b600060208201905061111060008301846110ec565b92915050565b600073ffffffffffffffffffffffffffffffffffffffff82169050919050565b600061114182611116565b9050919050565b61115181611136565b82525050565b600060208201905061116c6000830184611148565b92915050565b600067ffffffffffffffff82169050919050565b61118f81611172565b811461119a57600080fd5b50565b6000813590506111ac81611186565b92915050565b600080fd5b600080fd5b600080fd5b60008083601f8401126111d7576111d66111b2565b5b8235905067ffffffffffffffff8111156111f4576111f36111b7565b5b6020830191508360018202830111156112105761120f6111bc565b5b9250929050565b60008060008060006060868803121561123357611232611007565b5b60006112418882890161119d565b955050602086013567ffffffffffffffff8111156112625761126161100c565b5b61126e888289016111c1565b9450945050604086013567ffffffffffffffff8111156112915761129061100c565b5b61129d888289016111c1565b92509250509295509295909350565b6000602082840312156112c2576112c1611007565b5b60006112d08482850161119d565b91505092915050565b6112e281611172565b82525050565b6112f181611011565b82525050565b600060a08201905061130c60008301886112d9565b6113196020830187611148565b61132660408301866112e8565b61133360608301856112e8565b61134060808301846110ec565b9695505050505050565b61135381611136565b811461135e57600080fd5b50565b6000813590506113708161134a565b92915050565b60006020828403121561138c5761138b611007565b5b600061139a84828501611361565b91505092915050565b600080fd5b6000601f19601f8301169050919050565b7f4e487b7100000000000000000000000000000000000000000000000000000000600052604160045260246000fd5b6113f1826113a8565b810181811067ffffffffffffffff821117156114105761140f6113b9565b5b80604052505050565b6000611423610ffd565b905061142f82826113e8565b919050565b600067ffffffffffffffff82111561144f5761144e6113b9565b5b611458826113a8565b9050602081019050919050565b82818337600083830152505050565b600061148761148284611434565b611419565b9050828152602081018484840111156114a3576114a26113a3565b5b6114ae848285611465565b509392505050565b600082601f8301126114cb576114ca6111b2565b5b81356114db848260208601611474565b91505092915050565b6000602082840312156114fa576114f9611007565b5b600082013567ffffffffffffffff8111156115185761151761100c565b5b611524848285016114b6565b91505092915050565b600081519050919050565b600082825260208201905092915050565b60005b8381101561156757808201518184015260208101905061154c565b60008484015250505050565b600061157e8261152d565b6115888185611538565b9350611598818560208601611549565b6115a1816113a8565b840191505092915050565b600060208201905081810360008301526115c68184611573565b905092915050565b600080fd5b600060a082840312156115e9576115e86115ce565b5b81905092915050565b60008060c0838503121561160957611608611007565b5b60006116178582860161119d565b9250506020611628858286016115d3565b9150509250929050565b600082825260208201905092915050565b7f696e76616c6964206261746368496e6465780000000000000000000000000000600082015250565b6000611679601283611632565b915061168482611643565b602082019050919050565b600060208201905081810360008301526116a88161166c565b9050919050565b7f496e76616c69642070726f6f6600000000000000000000000000000000000000600082015250565b60006116e5600d83611632565b91506116f0826116af565b602082019050919050565b60006020820190508181036000830152611714816116d8565b9050919050565b7f496e76616c6964204b5a47206461746100000000000000000000000000000000600082015250565b6000611751601083611632565b915061175c8261171b565b602082019050919050565b6000602082019050818103600083015261178081611744565b9050919050565b600080fd5b600080fd5b600080858511156117a5576117a4611787565b5b838611156117b6576117b561178c565b5b6001850283019150848603905094509492505050565b6000819050919050565b6117e76117e282611074565b6117cc565b82525050565b600081905092915050565b60006118038261152d565b61180d81856117ed565b935061181d818560208601611549565b80840191505092915050565b600061183583856117ed565b9350611842838584611465565b82840190509392505050565b600061185a82876117d6565b60208201915061186a82866117f8565b9150611877828486611829565b915081905095945050505050565b600061189182846117f8565b915081905092915050565b7f6661696c656420746f2063616c6c20706f696e74206576616c756174696f6e2060008201527f707265636f6d70696c6500000000000000000000000000000000000000000000602082015250565b60006118f8602a83611632565b91506119038261189c565b604082019050919050565b60006020820190508181036000830152611927816118eb565b9050919050565b60008151905061193d8161101b565b92915050565b6000806040838503121561195a57611959611007565b5b60006119688582860161192e565b92505060206119798582860161192e565b9150509250929050565b7f707265636f6d70696c6520756e6578706563746564206f757470757400000000600082015250565b60006119b9601c83611632565b91506119c482611983565b602082019050919050565b600060208201905081810360008301526119e8816119ac565b9050919050565b60006119fb8385611538565b9350611a08838584611465565b611a11836113a8565b840190509392505050565b60006040820190508181036000830152611a378185876119ef565b9050611a46602083018461107e565b949350505050565b6000604082019050611a636000830185611148565b611a7060208301846112e8565b9392505050565b7f496e707574206c656e677468206d757374206265203332206279746573000000600082015250565b6000611aad601d83611632565b9150611ab882611a77565b602082019050919050565b60006020820190508181036000830152611adc81611aa0565b9050919050565b611aec81611074565b8114611af757600080fd5b50565b60008135611b0781611ae3565b80915050919050565b60008160001b9050919050565b60007fffffffffffffffffffffffffffffffffffffffffffffffffffffffffffffffff611b4984611b10565b9350801983169250808416831791505092915050565b6000611b6a82611074565b9050919050565b60008160001c9050919050565b6000611b8982611b71565b9050919050565b611b9982611b5f565b611bac611ba582611b7e565b8354611b1d565b8255505050565b600081016000830180611bc581611afa565b9050611bd18184611b90565b505050600181016020830180611be681611afa565b9050611bf28184611b90565b505050600281016040830180611c0781611afa565b9050611c138184611b90565b505050600381016060830180611c2881611afa565b9050611c348184611b90565b505050600481016080830180611c4981611afa565b9050611c558184611b90565b5050505050565b611c668282611bb3565b5050565b7f4f776e61626c653a206e6577206f776e657220697320746865207a65726f206160008201527f6464726573730000000000000000000000000000000000000000000000000000602082015250565b6000611cc6602683611632565b9150611cd182611c6a565b604082019050919050565b60006020820190508181036000830152611cf581611cb9565b9050919050565b6000611d0882856117f8565b9150611d1482846117d6565b6020820191508190509392505050565b6000602082019050611d39600083018461107e565b92915050565b7f4e487b7100000000000000000000000000000000000000000000000000000000600052603260045260246000fd5b60008160c01b9050919050565b6000611d8682611d6e565b9050919050565b611d9e611d9982611172565b611d7b565b82525050565b6000611db0828a611d8d565b600882019150611dc082896117d6565b602082019150611dd082886117d6565b602082019150611de082876117d6565b602082019150611df082866117d6565b602082019150611e0082856117f8565b9150611e0c82846117f8565b915081905098975050505050505050565b7f4f776e61626c653a2063616c6c6572206973206e6f7420746865206f776e6572600082015250565b6000611e53602083611632565b9150611e5e82611e1d565b602082019050919050565b60006020820190508181036000830152611e8281611e46565b905091905056fea2646970667358221220f2a9dbdc5c0094f54d9a2b5b33243d651d7187820ba6b154335a48a309736f3764736f6c63430008180033",
  "linkReferences": {},
  "deployedLinkReferences": {}
}