{
  "_format": "hh-sol-artifact-1",
  "contractName": "ShadowRollup",
  "sourceName": "contracts/ShadowRollup.sol",
  "abi": [
    {
      "inputs": [
        {
          "internalType": "address",
          "name": "_rollup",
          "type": "address"
        },
        {
          "internalType": "address",
          "name": "_verifier",
          "type": "address"
        }
      ],
      "stateMutability": "nonpayable",
      "type": "constructor"
    },
    {
      "anonymous": false,
      "inputs": [
        {
          "indexed": true,
          "internalType": "uint64",
          "name": "batchIndex",
          "type": "uint64"
        },
        {
          "indexed": false,
          "internalType": "address",
          "name": "challenger",
          "type": "address"
        },
        {
          "indexed": false,
          "internalType": "uint256",
          "name": "challengeDeposit",
          "type": "uint256"
        }
      ],
      "name": "ChallengeState",
      "type": "event"
    },
    {
      "anonymous": false,
      "inputs": [
        {
          "indexed": true,
          "internalType": "address",
          "name": "previousOwner",
          "type": "address"
        },
        {
          "indexed": true,
          "internalType": "address",
          "name": "newOwner",
          "type": "address"
        }
      ],
      "name": "OwnershipTransferred",
      "type": "event"
    },
    {
      "inputs": [
        {
          "internalType": "uint256",
          "name": "batchIndex",
          "type": "uint256"
        }
      ],
      "name": "batchInChallenge",
      "outputs": [
        {
          "internalType": "bool",
          "name": "",
          "type": "bool"
        }
      ],
      "stateMutability": "view",
      "type": "function"
    },
    {
      "inputs": [
        {
          "internalType": "uint64",
          "name": "batchIndex",
          "type": "uint64"
        }
      ],
      "name": "challengeState",
      "outputs": [],
      "stateMutability": "payable",
      "type": "function"
    },
    {
      "inputs": [
        {
          "internalType": "uint256",
          "name": "",
          "type": "uint256"
        }
      ],
      "name": "challenges",
      "outputs": [
        {
          "internalType": "uint64",
          "name": "batchIndex",
          "type": "uint64"
        },
        {
          "internalType": "address",
          "name": "challenger",
          "type": "address"
        },
        {
          "internalType": "uint256",
          "name": "challengeDeposit",
          "type": "uint256"
        },
        {
          "internalType": "uint256",
          "name": "startTime",
          "type": "uint256"
        },
        {
          "internalType": "bool",
          "name": "finished",
          "type": "bool"
        }
      ],
      "stateMutability": "view",
      "type": "function"
    },
    {
      "inputs": [
        {
          "internalType": "uint64",
          "name": "_batchIndex",
          "type": "uint64"
        },
        {
          "components": [
            {
              "internalType": "bytes32",
              "name": "prevStateRoot",
              "type": "bytes32"
            },
            {
              "internalType": "bytes32",
              "name": "postStateRoot",
              "type": "bytes32"
            },
            {
              "internalType": "bytes32",
              "name": "withdrawalRoot",
              "type": "bytes32"
            },
            {
              "internalType": "bytes32",
              "name": "dataHash",
              "type": "bytes32"
            },
            {
              "internalType": "bytes32",
              "name": "blobVersionedHash",
              "type": "bytes32"
            }
          ],
          "internalType": "struct ShadowRollup.BatchStore",
          "name": "_batchData",
          "type": "tuple"
        }
      ],
      "name": "commitBatch",
      "outputs": [],
      "stateMutability": "nonpayable",
      "type": "function"
    },
    {
      "inputs": [
        {
          "internalType": "uint256",
          "name": "",
          "type": "uint256"
        }
      ],
      "name": "committedBatchStores",
      "outputs": [
        {
          "internalType": "bytes32",
          "name": "prevStateRoot",
          "type": "bytes32"
        },
        {
          "internalType": "bytes32",
          "name": "postStateRoot",
          "type": "bytes32"
        },
        {
          "internalType": "bytes32",
          "name": "withdrawalRoot",
          "type": "bytes32"
        },
        {
          "internalType": "bytes32",
          "name": "dataHash",
          "type": "bytes32"
        },
        {
          "internalType": "bytes32",
          "name": "blobVersionedHash",
          "type": "bytes32"
        }
      ],
      "stateMutability": "view",
      "type": "function"
    },
    {
      "inputs": [
        {
          "internalType": "uint256",
          "name": "_batchIndex",
          "type": "uint256"
        }
      ],
      "name": "isBatchFinalized",
      "outputs": [
        {
          "internalType": "bool",
          "name": "",
          "type": "bool"
        }
      ],
      "stateMutability": "pure",
      "type": "function"
    },
    {
      "inputs": [],
      "name": "owner",
      "outputs": [
        {
          "internalType": "address",
          "name": "",
          "type": "address"
        }
      ],
      "stateMutability": "view",
      "type": "function"
    },
    {
      "inputs": [
        {
          "internalType": "uint64",
          "name": "_batchIndex",
          "type": "uint64"
        },
        {
          "internalType": "bytes",
          "name": "_aggrProof",
          "type": "bytes"
        },
        {
          "internalType": "bytes",
          "name": "_kzgData",
          "type": "bytes"
        }
      ],
      "name": "proveState",
      "outputs": [],
      "stateMutability": "nonpayable",
      "type": "function"
    },
    {
      "inputs": [],
      "name": "renounceOwnership",
      "outputs": [],
      "stateMutability": "nonpayable",
      "type": "function"
    },
    {
      "inputs": [],
      "name": "rollup",
      "outputs": [
        {
          "internalType": "address",
          "name": "",
          "type": "address"
        }
      ],
      "stateMutability": "view",
      "type": "function"
    },
    {
      "inputs": [
        {
          "internalType": "address",
          "name": "newOwner",
          "type": "address"
        }
      ],
      "name": "transferOwnership",
      "outputs": [],
      "stateMutability": "nonpayable",
      "type": "function"
    },
    {
      "inputs": [
        {
          "internalType": "address",
          "name": "_rollup",
          "type": "address"
        }
      ],
      "name": "updateRollup",
      "outputs": [],
      "stateMutability": "nonpayable",
      "type": "function"
    },
    {
      "inputs": [
        {
          "internalType": "address",
          "name": "_verifier",
          "type": "address"
        }
      ],
      "name": "updateVerifier",
      "outputs": [],
      "stateMutability": "nonpayable",
      "type": "function"
    },
    {
      "inputs": [],
      "name": "zkevm_verifier",
      "outputs": [
        {
          "internalType": "address",
          "name": "",
          "type": "address"
        }
      ],
      "stateMutability": "view",
      "type": "function"
    }
  ],
  "bytecode": "0x60806040523480156200001157600080fd5b5060405162001cbb38038062001cbb833981810160405281019062000037919062000217565b620000576200004b620000e160201b60201c565b620000e960201b60201c565b81600160006101000a81548173ffffffffffffffffffffffffffffffffffffffff021916908373ffffffffffffffffffffffffffffffffffffffff16021790555080600260006101000a81548173ffffffffffffffffffffffffffffffffffffffff021916908373ffffffffffffffffffffffffffffffffffffffff16021790555050506200025e565b600033905090565b60008060009054906101000a900473ffffffffffffffffffffffffffffffffffffffff169050816000806101000a81548173ffffffffffffffffffffffffffffffffffffffff021916908373ffffffffffffffffffffffffffffffffffffffff1602179055508173ffffffffffffffffffffffffffffffffffffffff168173ffffffffffffffffffffffffffffffffffffffff167f8be0079c531659141344cd1fd0a4f28419497f9722a3daafe3b4186f6b6457e060405160405180910390a35050565b600080fd5b600073ffffffffffffffffffffffffffffffffffffffff82169050919050565b6000620001df82620001b2565b9050919050565b620001f181620001d2565b8114620001fd57600080fd5b50565b6000815190506200021181620001e6565b92915050565b60008060408385031215620002315762000230620001ad565b5b6000620002418582860162000200565b9250506020620002548582860162000200565b9150509250929050565b611a4d806200026e6000396000f3fe6080604052600436106100dd5760003560e01c80638f1d37761161007f578063d181ed7611610059578063d181ed76146102a7578063d87e7df1146102d0578063de8b3035146102f9578063f2fde38b14610336576100dd565b80638f1d37761461021257806397fc007c14610253578063cb23bcb51461027c576100dd565b806336622a30116100bb57806336622a301461018b578063715018a6146101b45780638d644bb7146101cb5780638da5cb5b146101e7576100dd565b80630b79cdda146100e2578063116a1f4214610123578063331e8f7f14610160575b600080fd5b3480156100ee57600080fd5b5061010960048036038101906101049190610e5c565b61035f565b60405161011a959493929190610ea2565b60405180910390f35b34801561012f57600080fd5b5061014a60048036038101906101459190610e5c565b610395565b6040516101579190610f10565b60405180910390f35b34801561016c57600080fd5b506101756103e2565b6040516101829190610f6c565b60405180910390f35b34801561019757600080fd5b506101b260048036038101906101ad919061102c565b610408565b005b3480156101c057600080fd5b506101c961089f565b005b6101e560048036038101906101e091906110c1565b6108b3565b005b3480156101f357600080fd5b506101fc610a24565b6040516102099190610f6c565b60405180910390f35b34801561021e57600080fd5b5061023960048036038101906102349190610e5c565b610a4d565b60405161024a95949392919061110c565b60405180910390f35b34801561025f57600080fd5b5061027a6004803603810190610275919061118b565b610ac4565b005b34801561028857600080fd5b50610291610b10565b60405161029e9190610f6c565b60405180910390f35b3480156102b357600080fd5b506102ce60048036038101906102c991906111dc565b610b36565b005b3480156102dc57600080fd5b506102f760048036038101906102f2919061118b565b610b67565b005b34801561030557600080fd5b50610320600480360381019061031b9190610e5c565b610bb3565b60405161032d9190610f10565b60405180910390f35b34801561034257600080fd5b5061035d6004803603810190610358919061118b565b610c4f565b005b60036020528060005260406000206000915090508060000154908060010154908060020154908060030154908060040154905085565b60008082116103d9576040517f08c379a00000000000000000000000000000000000000000000000000000000081526004016103d090611279565b60405180910390fd5b60009050919050565b600260009054906101000a900473ffffffffffffffffffffffffffffffffffffffff1681565b6000848490501161044e576040517f08c379a0000000000000000000000000000000000000000000000000000000008152600401610445906112e5565b60405180910390fd5b60808282905014610494576040517f08c379a000000000000000000000000000000000000000000000000000000000815260040161048b90611351565b60405180910390fd5b6000600160009054906101000a900473ffffffffffffffffffffffffffffffffffffffff1673ffffffffffffffffffffffffffffffffffffffff166303c7f4af6040518163ffffffff1660e01b8152600401602060405180830381865afa158015610503573d6000803e3d6000fd5b505050506040513d601f19601f820116820180604052508101906105279190611386565b9050600081600360008967ffffffffffffffff16815260200190815260200160002060000154600360008a67ffffffffffffffff16815260200190815260200160002060010154600360008b67ffffffffffffffff16815260200190815260200160002060020154600360008c67ffffffffffffffff168152602001908152602001600020600301546040516020016105c495949392919061140a565b604051602081830303815290604052805190602001209050600084846020906050926105f293929190611473565b8080601f016020809104026020016040519081016040528093929190818152602001838380828437600081840152601f19601f820116905080830192505050505050509050600081600360008b67ffffffffffffffff1681526020019081526020016000206003015460405160200161066c92919061151f565b604051602081830303815290604052805190602001206040516020016106929190611547565b6040516020818303038152906040529050600060f81b816000815181106106bc576106bb611562565b5b60200101907effffffffffffffffffffffffffffffffffffffffffffffffffffffffffffff1916908160001a9053506000600360008b67ffffffffffffffff168152602001908152602001600020600401548288886040516020016107249493929190611628565b60405160208183030381529060405290506000606060408160c085600a5afa915081610785576040517f08c379a000000000000000000000000000000000000000000000000000000000815260040161077c906116bb565b60405180910390fd5b600086858b8b60009060209261079d93929190611473565b6040516020016107b09493929190611700565b604051602081830303815290604052805190602001209050600260009054906101000a900473ffffffffffffffffffffffffffffffffffffffff1673ffffffffffffffffffffffffffffffffffffffff16636b4063418d8d846040518463ffffffff1660e01b815260040161082793929190611737565b60006040518083038186803b15801561083f57600080fd5b505afa158015610853573d6000803e3d6000fd5b505050506001600460008f67ffffffffffffffff16815260200190815260200160002060030160006101000a81548160ff02191690831515021790555050505050505050505050505050565b6108a7610cd2565b6108b16000610d50565b565b6108bb610cd2565b6040518060a001604052808267ffffffffffffffff1681526020016108de610e14565b73ffffffffffffffffffffffffffffffffffffffff16815260200134815260200142815260200160001515815250600460008367ffffffffffffffff16815260200190815260200160002060008201518160000160006101000a81548167ffffffffffffffff021916908367ffffffffffffffff16021790555060208201518160000160086101000a81548173ffffffffffffffffffffffffffffffffffffffff021916908373ffffffffffffffffffffffffffffffffffffffff160217905550604082015181600101556060820151816002015560808201518160030160006101000a81548160ff0219169083151502179055509050508067ffffffffffffffff167f3a6ea19df25b49e7624e313ce7c1ab23984238e93727260db56a81735b1b9976610a0a610e14565b34604051610a19929190611769565b60405180910390a250565b60008060009054906101000a900473ffffffffffffffffffffffffffffffffffffffff16905090565b60046020528060005260406000206000915090508060000160009054906101000a900467ffffffffffffffff16908060000160089054906101000a900473ffffffffffffffffffffffffffffffffffffffff16908060010154908060020154908060030160009054906101000a900460ff16905085565b610acc610cd2565b80600260006101000a81548173ffffffffffffffffffffffffffffffffffffffff021916908373ffffffffffffffffffffffffffffffffffffffff16021790555050565b600160009054906101000a900473ffffffffffffffffffffffffffffffffffffffff1681565b80600360008467ffffffffffffffff1681526020019081526020016000208181610b60919061190b565b9050505050565b610b6f610cd2565b80600160006101000a81548173ffffffffffffffffffffffffffffffffffffffff021916908373ffffffffffffffffffffffffffffffffffffffff16021790555050565b60008073ffffffffffffffffffffffffffffffffffffffff166004600084815260200190815260200160002060000160089054906101000a900473ffffffffffffffffffffffffffffffffffffffff1673ffffffffffffffffffffffffffffffffffffffff1614158015610c4857506004600083815260200190815260200160002060030160009054906101000a900460ff16155b9050919050565b610c57610cd2565b600073ffffffffffffffffffffffffffffffffffffffff168173ffffffffffffffffffffffffffffffffffffffff1603610cc6576040517f08c379a0000000000000000000000000000000000000000000000000000000008152600401610cbd9061198b565b60405180910390fd5b610ccf81610d50565b50565b610cda610e14565b73ffffffffffffffffffffffffffffffffffffffff16610cf8610a24565b73ffffffffffffffffffffffffffffffffffffffff1614610d4e576040517f08c379a0000000000000000000000000000000000000000000000000000000008152600401610d45906119f7565b60405180910390fd5b565b60008060009054906101000a900473ffffffffffffffffffffffffffffffffffffffff169050816000806101000a81548173ffffffffffffffffffffffffffffffffffffffff021916908373ffffffffffffffffffffffffffffffffffffffff1602179055508173ffffffffffffffffffffffffffffffffffffffff168173ffffffffffffffffffffffffffffffffffffffff167f8be0079c531659141344cd1fd0a4f28419497f9722a3daafe3b4186f6b6457e060405160405180910390a35050565b600033905090565b600080fd5b600080fd5b6000819050919050565b610e3981610e26565b8114610e4457600080fd5b50565b600081359050610e5681610e30565b92915050565b600060208284031215610e7257610e71610e1c565b5b6000610e8084828501610e47565b91505092915050565b6000819050919050565b610e9c81610e89565b82525050565b600060a082019050610eb76000830188610e93565b610ec46020830187610e93565b610ed16040830186610e93565b610ede6060830185610e93565b610eeb6080830184610e93565b9695505050505050565b60008115159050919050565b610f0a81610ef5565b82525050565b6000602082019050610f256000830184610f01565b92915050565b600073ffffffffffffffffffffffffffffffffffffffff82169050919050565b6000610f5682610f2b565b9050919050565b610f6681610f4b565b82525050565b6000602082019050610f816000830184610f5d565b92915050565b600067ffffffffffffffff82169050919050565b610fa481610f87565b8114610faf57600080fd5b50565b600081359050610fc181610f9b565b92915050565b600080fd5b600080fd5b600080fd5b60008083601f840112610fec57610feb610fc7565b5b8235905067ffffffffffffffff81111561100957611008610fcc565b5b60208301915083600182028301111561102557611024610fd1565b5b9250929050565b60008060008060006060868803121561104857611047610e1c565b5b600061105688828901610fb2565b955050602086013567ffffffffffffffff81111561107757611076610e21565b5b61108388828901610fd6565b9450945050604086013567ffffffffffffffff8111156110a6576110a5610e21565b5b6110b288828901610fd6565b92509250509295509295909350565b6000602082840312156110d7576110d6610e1c565b5b60006110e584828501610fb2565b91505092915050565b6110f781610f87565b82525050565b61110681610e26565b82525050565b600060a08201905061112160008301886110ee565b61112e6020830187610f5d565b61113b60408301866110fd565b61114860608301856110fd565b6111556080830184610f01565b9695505050505050565b61116881610f4b565b811461117357600080fd5b50565b6000813590506111858161115f565b92915050565b6000602082840312156111a1576111a0610e1c565b5b60006111af84828501611176565b91505092915050565b600080fd5b600060a082840312156111d3576111d26111b8565b5b81905092915050565b60008060c083850312156111f3576111f2610e1c565b5b600061120185828601610fb2565b9250506020611212858286016111bd565b9150509250929050565b600082825260208201905092915050565b7f696e76616c6964206261746368496e6465780000000000000000000000000000600082015250565b600061126360128361121c565b915061126e8261122d565b602082019050919050565b6000602082019050818103600083015261129281611256565b9050919050565b7f496e76616c69642070726f6f6600000000000000000000000000000000000000600082015250565b60006112cf600d8361121c565b91506112da82611299565b602082019050919050565b600060208201905081810360008301526112fe816112c2565b9050919050565b7f496e76616c6964204b5a47206461746100000000000000000000000000000000600082015250565b600061133b60108361121c565b915061134682611305565b602082019050919050565b6000602082019050818103600083015261136a8161132e565b9050919050565b60008151905061138081610f9b565b92915050565b60006020828403121561139c5761139b610e1c565b5b60006113aa84828501611371565b91505092915050565b60008160c01b9050919050565b60006113cb826113b3565b9050919050565b6113e36113de82610f87565b6113c0565b82525050565b6000819050919050565b6114046113ff82610e89565b6113e9565b82525050565b600061141682886113d2565b60088201915061142682876113f3565b60208201915061143682866113f3565b60208201915061144682856113f3565b60208201915061145682846113f3565b6020820191508190509695505050505050565b600080fd5b600080fd5b6000808585111561148757611486611469565b5b838611156114985761149761146e565b5b6001850283019150848603905094509492505050565b600081519050919050565b600081905092915050565b60005b838110156114e25780820151818401526020810190506114c7565b60008484015250505050565b60006114f9826114ae565b61150381856114b9565b93506115138185602086016114c4565b80840191505092915050565b600061152b82856114ee565b915061153782846113f3565b6020820191508190509392505050565b600060208201905061155c6000830184610e93565b92915050565b7f4e487b7100000000000000000000000000000000000000000000000000000000600052603260045260246000fd5b600082825260208201905092915050565b6000601f19601f8301169050919050565b60006115be826114ae565b6115c88185611591565b93506115d88185602086016114c4565b6115e1816115a2565b840191505092915050565b82818337600083830152505050565b60006116078385611591565b93506116148385846115ec565b61161d836115a2565b840190509392505050565b600060608201905061163d6000830187610e93565b818103602083015261164f81866115b3565b905081810360408301526116648184866115fb565b905095945050505050565b7f76657269667920343834342d70726f6f66206661696c65640000000000000000600082015250565b60006116a560188361121c565b91506116b08261166f565b602082019050919050565b600060208201905081810360008301526116d481611698565b9050919050565b60006116e783856114b9565b93506116f48385846115ec565b82840190509392505050565b600061170c82876113f3565b60208201915061171c82866114ee565b91506117298284866116db565b915081905095945050505050565b600060408201905081810360008301526117528185876115fb565b90506117616020830184610e93565b949350505050565b600060408201905061177e6000830185610f5d565b61178b60208301846110fd565b9392505050565b61179b81610e89565b81146117a657600080fd5b50565b600081356117b681611792565b80915050919050565b60008160001b9050919050565b60007fffffffffffffffffffffffffffffffffffffffffffffffffffffffffffffffff6117f8846117bf565b9350801983169250808416831791505092915050565b600061181982610e89565b9050919050565b60008160001c9050919050565b600061183882611820565b9050919050565b6118488261180e565b61185b6118548261182d565b83546117cc565b8255505050565b600081016000830180611874816117a9565b9050611880818461183f565b505050600181016020830180611895816117a9565b90506118a1818461183f565b5050506002810160408301806118b6816117a9565b90506118c2818461183f565b5050506003810160608301806118d7816117a9565b90506118e3818461183f565b5050506004810160808301806118f8816117a9565b9050611904818461183f565b5050505050565b6119158282611862565b5050565b7f4f776e61626c653a206e6577206f776e657220697320746865207a65726f206160008201527f6464726573730000000000000000000000000000000000000000000000000000602082015250565b600061197560268361121c565b915061198082611919565b604082019050919050565b600060208201905081810360008301526119a481611968565b9050919050565b7f4f776e61626c653a2063616c6c6572206973206e6f7420746865206f776e6572600082015250565b60006119e160208361121c565b91506119ec826119ab565b602082019050919050565b60006020820190508181036000830152611a10816119d4565b905091905056fea2646970667358221220b069cd5c82a0af8b79ea1bf9606e6a17705b11767c5dff6ef0306c53aecc1a1b64736f6c63430008180033",
  "linkReferences": {},
  "deployedLinkReferences": {}
}