{
  "_format": "hh-sol-artifact-1",
  "contractName": "ShadowRollup",
  "sourceName": "contracts/ShadowRollup.sol",
  "abi": [
    {
      "inputs": [
        {
          "internalType": "address",
          "name": "_rollup",
          "type": "address"
        },
        {
          "internalType": "address",
          "name": "_verifier",
          "type": "address"
        }
      ],
      "stateMutability": "nonpayable",
      "type": "constructor"
    },
    {
      "anonymous": false,
      "inputs": [
        {
          "indexed": true,
          "internalType": "uint64",
          "name": "batchIndex",
          "type": "uint64"
        },
        {
          "indexed": false,
          "internalType": "address",
          "name": "challenger",
          "type": "address"
        },
        {
          "indexed": false,
          "internalType": "uint256",
          "name": "challengeDeposit",
          "type": "uint256"
        }
      ],
      "name": "ChallengeState",
      "type": "event"
    },
    {
      "anonymous": false,
      "inputs": [
        {
          "indexed": true,
          "internalType": "address",
          "name": "previousOwner",
          "type": "address"
        },
        {
          "indexed": true,
          "internalType": "address",
          "name": "newOwner",
          "type": "address"
        }
      ],
      "name": "OwnershipTransferred",
      "type": "event"
    },
    {
      "inputs": [
        {
          "internalType": "uint256",
          "name": "batchIndex",
          "type": "uint256"
        }
      ],
      "name": "batchInChallenge",
      "outputs": [
        {
          "internalType": "bool",
          "name": "",
          "type": "bool"
        }
      ],
      "stateMutability": "view",
      "type": "function"
    },
    {
      "inputs": [
        {
          "internalType": "uint64",
          "name": "batchIndex",
          "type": "uint64"
        }
      ],
      "name": "challengeState",
      "outputs": [],
      "stateMutability": "payable",
      "type": "function"
    },
    {
      "inputs": [
        {
          "internalType": "uint256",
          "name": "",
          "type": "uint256"
        }
      ],
      "name": "challenges",
      "outputs": [
        {
          "internalType": "uint64",
          "name": "batchIndex",
          "type": "uint64"
        },
        {
          "internalType": "address",
          "name": "challenger",
          "type": "address"
        },
        {
          "internalType": "uint256",
          "name": "challengeDeposit",
          "type": "uint256"
        },
        {
          "internalType": "uint256",
          "name": "startTime",
          "type": "uint256"
        },
        {
          "internalType": "bool",
          "name": "finished",
          "type": "bool"
        }
      ],
      "stateMutability": "view",
      "type": "function"
    },
    {
      "inputs": [
        {
          "internalType": "uint64",
          "name": "_batchIndex",
          "type": "uint64"
        },
        {
          "components": [
            {
              "internalType": "bytes32",
              "name": "prevStateRoot",
              "type": "bytes32"
            },
            {
              "internalType": "bytes32",
              "name": "postStateRoot",
              "type": "bytes32"
            },
            {
              "internalType": "bytes32",
              "name": "withdrawalRoot",
              "type": "bytes32"
            },
            {
              "internalType": "bytes32",
              "name": "dataHash",
              "type": "bytes32"
            },
            {
              "internalType": "bytes32",
              "name": "blobVersionedHash",
              "type": "bytes32"
            }
          ],
          "internalType": "struct ShadowRollup.BatchStore",
          "name": "_batchData",
          "type": "tuple"
        }
      ],
      "name": "commitBatch",
      "outputs": [],
      "stateMutability": "nonpayable",
      "type": "function"
    },
    {
      "inputs": [
        {
          "internalType": "uint256",
          "name": "",
          "type": "uint256"
        }
      ],
      "name": "committedBatchStores",
      "outputs": [
        {
          "internalType": "bytes32",
          "name": "prevStateRoot",
          "type": "bytes32"
        },
        {
          "internalType": "bytes32",
          "name": "postStateRoot",
          "type": "bytes32"
        },
        {
          "internalType": "bytes32",
          "name": "withdrawalRoot",
          "type": "bytes32"
        },
        {
          "internalType": "bytes32",
          "name": "dataHash",
          "type": "bytes32"
        },
        {
          "internalType": "bytes32",
          "name": "blobVersionedHash",
          "type": "bytes32"
        }
      ],
      "stateMutability": "view",
      "type": "function"
    },
    {
      "inputs": [
        {
          "internalType": "uint256",
          "name": "_batchIndex",
          "type": "uint256"
        }
      ],
      "name": "isBatchFinalized",
      "outputs": [
        {
          "internalType": "bool",
          "name": "",
          "type": "bool"
        }
      ],
      "stateMutability": "pure",
      "type": "function"
    },
    {
      "inputs": [],
      "name": "owner",
      "outputs": [
        {
          "internalType": "address",
          "name": "",
          "type": "address"
        }
      ],
      "stateMutability": "view",
      "type": "function"
    },
    {
      "inputs": [
        {
          "internalType": "uint64",
          "name": "_batchIndex",
          "type": "uint64"
        },
        {
          "internalType": "bytes",
          "name": "_aggrProof",
          "type": "bytes"
        },
        {
          "internalType": "bytes",
          "name": "_kzgData",
          "type": "bytes"
        }
      ],
      "name": "proveState",
      "outputs": [],
      "stateMutability": "nonpayable",
      "type": "function"
    },
    {
      "inputs": [],
      "name": "renounceOwnership",
      "outputs": [],
      "stateMutability": "nonpayable",
      "type": "function"
    },
    {
      "inputs": [],
      "name": "rollup",
      "outputs": [
        {
          "internalType": "address",
          "name": "",
          "type": "address"
        }
      ],
      "stateMutability": "view",
      "type": "function"
    },
    {
      "inputs": [
        {
          "internalType": "address",
          "name": "newOwner",
          "type": "address"
        }
      ],
      "name": "transferOwnership",
      "outputs": [],
      "stateMutability": "nonpayable",
      "type": "function"
    },
    {
      "inputs": [
        {
          "internalType": "address",
          "name": "_rollup",
          "type": "address"
        }
      ],
      "name": "updateRollup",
      "outputs": [],
      "stateMutability": "nonpayable",
      "type": "function"
    },
    {
      "inputs": [
        {
          "internalType": "address",
          "name": "_verifier",
          "type": "address"
        }
      ],
      "name": "updateVerifier",
      "outputs": [],
      "stateMutability": "nonpayable",
      "type": "function"
    },
    {
      "inputs": [],
      "name": "zkevm_verifier",
      "outputs": [
        {
          "internalType": "address",
          "name": "",
          "type": "address"
        }
      ],
      "stateMutability": "view",
      "type": "function"
    }
  ],
  "bytecode": "0x60806040523480156200001157600080fd5b5060405162001ed938038062001ed9833981810160405281019062000037919062000217565b620000576200004b620000e160201b60201c565b620000e960201b60201c565b81600160006101000a81548173ffffffffffffffffffffffffffffffffffffffff021916908373ffffffffffffffffffffffffffffffffffffffff16021790555080600260006101000a81548173ffffffffffffffffffffffffffffffffffffffff021916908373ffffffffffffffffffffffffffffffffffffffff16021790555050506200025e565b600033905090565b60008060009054906101000a900473ffffffffffffffffffffffffffffffffffffffff169050816000806101000a81548173ffffffffffffffffffffffffffffffffffffffff021916908373ffffffffffffffffffffffffffffffffffffffff1602179055508173ffffffffffffffffffffffffffffffffffffffff168173ffffffffffffffffffffffffffffffffffffffff167f8be0079c531659141344cd1fd0a4f28419497f9722a3daafe3b4186f6b6457e060405160405180910390a35050565b600080fd5b600073ffffffffffffffffffffffffffffffffffffffff82169050919050565b6000620001df82620001b2565b9050919050565b620001f181620001d2565b8114620001fd57600080fd5b50565b6000815190506200021181620001e6565b92915050565b60008060408385031215620002315762000230620001ad565b5b6000620002418582860162000200565b9250506020620002548582860162000200565b9150509250929050565b611c6b806200026e6000396000f3fe6080604052600436106100dd5760003560e01c80638f1d37761161007f578063d181ed7611610059578063d181ed76146102a7578063d87e7df1146102d0578063de8b3035146102f9578063f2fde38b14610336576100dd565b80638f1d37761461021257806397fc007c14610253578063cb23bcb51461027c576100dd565b806336622a30116100bb57806336622a301461018b578063715018a6146101b45780638d644bb7146101cb5780638da5cb5b146101e7576100dd565b80630b79cdda146100e2578063116a1f4214610123578063331e8f7f14610160575b600080fd5b3480156100ee57600080fd5b506101096004803603810190610104919061102f565b61035f565b60405161011a959493929190611075565b60405180910390f35b34801561012f57600080fd5b5061014a6004803603810190610145919061102f565b610395565b60405161015791906110e3565b60405180910390f35b34801561016c57600080fd5b506101756103e2565b604051610182919061113f565b60405180910390f35b34801561019757600080fd5b506101b260048036038101906101ad91906111ff565b610408565b005b3480156101c057600080fd5b506101c9610857565b005b6101e560048036038101906101e09190611294565b61086b565b005b3480156101f357600080fd5b506101fc6109dc565b604051610209919061113f565b60405180910390f35b34801561021e57600080fd5b506102396004803603810190610234919061102f565b610a05565b60405161024a9594939291906112df565b60405180910390f35b34801561025f57600080fd5b5061027a6004803603810190610275919061135e565b610a7c565b005b34801561028857600080fd5b50610291610ac8565b60405161029e919061113f565b60405180910390f35b3480156102b357600080fd5b506102ce60048036038101906102c991906113af565b610aee565b005b3480156102dc57600080fd5b506102f760048036038101906102f2919061135e565b610b1f565b005b34801561030557600080fd5b50610320600480360381019061031b919061102f565b610b6b565b60405161032d91906110e3565b60405180910390f35b34801561034257600080fd5b5061035d6004803603810190610358919061135e565b610c07565b005b60036020528060005260406000206000915090508060000154908060010154908060020154908060030154908060040154905085565b60008082116103d9576040517f08c379a00000000000000000000000000000000000000000000000000000000081526004016103d09061144c565b60405180910390fd5b60009050919050565b600260009054906101000a900473ffffffffffffffffffffffffffffffffffffffff1681565b6000848490501161044e576040517f08c379a0000000000000000000000000000000000000000000000000000000008152600401610445906114b8565b60405180910390fd5b60808282905014610494576040517f08c379a000000000000000000000000000000000000000000000000000000000815260040161048b90611524565b60405180910390fd5b600061cf559050600081600360008967ffffffffffffffff16815260200190815260200160002060000154600360008a67ffffffffffffffff16815260200190815260200160002060010154600360008b67ffffffffffffffff16815260200190815260200160002060020154600360008c67ffffffffffffffff1681526020019081526020016000206003015460405160200161053695949392919061159b565b6040516020818303038152906040528051906020012090506000848460209060509261056493929190611604565b8080601f016020809104026020016040519081016040528093929190818152602001838380828437600081840152601f19601f8201169050808301925050505050505090506105e76040518060400160405280600c81526020017f5f636f6d6d69746d656e743a0000000000000000000000000000000000000000815250610c8a565b6105f081610d23565b600081600360008b67ffffffffffffffff168152602001908152602001600020600301546040516020016106259291906116cf565b6040516020818303038152906040528051906020012060405160200161064b91906116ff565b6040516020818303038152906040529050600060f81b816000815181106106755761067461171a565b5b60200101907effffffffffffffffffffffffffffffffffffffffffffffffffffffffffffff1916908160001a9053506106e26040518060400160405280600881526020017f5f7842797465733a000000000000000000000000000000000000000000000000815250610c8a565b6106eb81610d23565b6000600360008b67ffffffffffffffff168152602001908152602001600020600401548288886040516020016107249493929190611785565b60405160208183030381529060405290506000606060408160c085600a5afa915081610785576040517f08c379a000000000000000000000000000000000000000000000000000000000815260040161077c90611818565b60405180910390fd5b600086858b8b60009060209261079d93929190611604565b6040516020016107b09493929190611899565b6040516020818303038152906040528051906020012090506108066040518060400160405280601481526020017f5f6e65775075626c6963496e707574486173683a000000000000000000000000815250610c8a565b61080f81610dbc565b6001600460008f67ffffffffffffffff16815260200190815260200160002060030160006101000a81548160ff02191690831515021790555050505050505050505050505050565b61085f610e55565b6108696000610ed3565b565b610873610e55565b6040518060a001604052808267ffffffffffffffff168152602001610896610f97565b73ffffffffffffffffffffffffffffffffffffffff16815260200134815260200142815260200160001515815250600460008367ffffffffffffffff16815260200190815260200160002060008201518160000160006101000a81548167ffffffffffffffff021916908367ffffffffffffffff16021790555060208201518160000160086101000a81548173ffffffffffffffffffffffffffffffffffffffff021916908373ffffffffffffffffffffffffffffffffffffffff160217905550604082015181600101556060820151816002015560808201518160030160006101000a81548160ff0219169083151502179055509050508067ffffffffffffffff167f3a6ea19df25b49e7624e313ce7c1ab23984238e93727260db56a81735b1b99766109c2610f97565b346040516109d19291906118d0565b60405180910390a250565b60008060009054906101000a900473ffffffffffffffffffffffffffffffffffffffff16905090565b60046020528060005260406000206000915090508060000160009054906101000a900467ffffffffffffffff16908060000160089054906101000a900473ffffffffffffffffffffffffffffffffffffffff16908060010154908060020154908060030160009054906101000a900460ff16905085565b610a84610e55565b80600260006101000a81548173ffffffffffffffffffffffffffffffffffffffff021916908373ffffffffffffffffffffffffffffffffffffffff16021790555050565b600160009054906101000a900473ffffffffffffffffffffffffffffffffffffffff1681565b80600360008467ffffffffffffffff1681526020019081526020016000208181610b189190611a72565b9050505050565b610b27610e55565b80600160006101000a81548173ffffffffffffffffffffffffffffffffffffffff021916908373ffffffffffffffffffffffffffffffffffffffff16021790555050565b60008073ffffffffffffffffffffffffffffffffffffffff166004600084815260200190815260200160002060000160089054906101000a900473ffffffffffffffffffffffffffffffffffffffff1673ffffffffffffffffffffffffffffffffffffffff1614158015610c0057506004600083815260200190815260200160002060030160009054906101000a900460ff16155b9050919050565b610c0f610e55565b600073ffffffffffffffffffffffffffffffffffffffff168173ffffffffffffffffffffffffffffffffffffffff1603610c7e576040517f08c379a0000000000000000000000000000000000000000000000000000000008152600401610c7590611af2565b60405180910390fd5b610c8781610ed3565b50565b610d2081604051602401610c9e9190611b56565b6040516020818303038152906040527f41304fac000000000000000000000000000000000000000000000000000000007bffffffffffffffffffffffffffffffffffffffffffffffffffffffff19166020820180517bffffffffffffffffffffffffffffffffffffffffffffffffffffffff8381831617835250505050610f9f565b50565b610db981604051602401610d379190611b78565b6040516020818303038152906040527f0be77f56000000000000000000000000000000000000000000000000000000007bffffffffffffffffffffffffffffffffffffffffffffffffffffffff19166020820180517bffffffffffffffffffffffffffffffffffffffffffffffffffffffff8381831617835250505050610f9f565b50565b610e5281604051602401610dd091906116ff565b6040516020818303038152906040527f27b7cf85000000000000000000000000000000000000000000000000000000007bffffffffffffffffffffffffffffffffffffffffffffffffffffffff19166020820180517bffffffffffffffffffffffffffffffffffffffffffffffffffffffff8381831617835250505050610f9f565b50565b610e5d610f97565b73ffffffffffffffffffffffffffffffffffffffff16610e7b6109dc565b73ffffffffffffffffffffffffffffffffffffffff1614610ed1576040517f08c379a0000000000000000000000000000000000000000000000000000000008152600401610ec890611be6565b60405180910390fd5b565b60008060009054906101000a900473ffffffffffffffffffffffffffffffffffffffff169050816000806101000a81548173ffffffffffffffffffffffffffffffffffffffff021916908373ffffffffffffffffffffffffffffffffffffffff1602179055508173ffffffffffffffffffffffffffffffffffffffff168173ffffffffffffffffffffffffffffffffffffffff167f8be0079c531659141344cd1fd0a4f28419497f9722a3daafe3b4186f6b6457e060405160405180910390a35050565b600033905090565b610fb681610fae610fb9610fda565b63ffffffff16565b50565b60006a636f6e736f6c652e6c6f679050600080835160208501845afa505050565b610fe5819050919050565b610fed611c06565b565b600080fd5b600080fd5b6000819050919050565b61100c81610ff9565b811461101757600080fd5b50565b60008135905061102981611003565b92915050565b60006020828403121561104557611044610fef565b5b60006110538482850161101a565b91505092915050565b6000819050919050565b61106f8161105c565b82525050565b600060a08201905061108a6000830188611066565b6110976020830187611066565b6110a46040830186611066565b6110b16060830185611066565b6110be6080830184611066565b9695505050505050565b60008115159050919050565b6110dd816110c8565b82525050565b60006020820190506110f860008301846110d4565b92915050565b600073ffffffffffffffffffffffffffffffffffffffff82169050919050565b6000611129826110fe565b9050919050565b6111398161111e565b82525050565b60006020820190506111546000830184611130565b92915050565b600067ffffffffffffffff82169050919050565b6111778161115a565b811461118257600080fd5b50565b6000813590506111948161116e565b92915050565b600080fd5b600080fd5b600080fd5b60008083601f8401126111bf576111be61119a565b5b8235905067ffffffffffffffff8111156111dc576111db61119f565b5b6020830191508360018202830111156111f8576111f76111a4565b5b9250929050565b60008060008060006060868803121561121b5761121a610fef565b5b600061122988828901611185565b955050602086013567ffffffffffffffff81111561124a57611249610ff4565b5b611256888289016111a9565b9450945050604086013567ffffffffffffffff81111561127957611278610ff4565b5b611285888289016111a9565b92509250509295509295909350565b6000602082840312156112aa576112a9610fef565b5b60006112b884828501611185565b91505092915050565b6112ca8161115a565b82525050565b6112d981610ff9565b82525050565b600060a0820190506112f460008301886112c1565b6113016020830187611130565b61130e60408301866112d0565b61131b60608301856112d0565b61132860808301846110d4565b9695505050505050565b61133b8161111e565b811461134657600080fd5b50565b60008135905061135881611332565b92915050565b60006020828403121561137457611373610fef565b5b600061138284828501611349565b91505092915050565b600080fd5b600060a082840312156113a6576113a561138b565b5b81905092915050565b60008060c083850312156113c6576113c5610fef565b5b60006113d485828601611185565b92505060206113e585828601611390565b9150509250929050565b600082825260208201905092915050565b7f696e76616c6964206261746368496e6465780000000000000000000000000000600082015250565b60006114366012836113ef565b915061144182611400565b602082019050919050565b6000602082019050818103600083015261146581611429565b9050919050565b7f496e76616c69642070726f6f6600000000000000000000000000000000000000600082015250565b60006114a2600d836113ef565b91506114ad8261146c565b602082019050919050565b600060208201905081810360008301526114d181611495565b9050919050565b7f496e76616c6964204b5a47206461746100000000000000000000000000000000600082015250565b600061150e6010836113ef565b9150611519826114d8565b602082019050919050565b6000602082019050818103600083015261153d81611501565b9050919050565b60008160c01b9050919050565b600061155c82611544565b9050919050565b61157461156f8261115a565b611551565b82525050565b6000819050919050565b6115956115908261105c565b61157a565b82525050565b60006115a78288611563565b6008820191506115b78287611584565b6020820191506115c78286611584565b6020820191506115d78285611584565b6020820191506115e78284611584565b6020820191508190509695505050505050565b600080fd5b600080fd5b60008085851115611618576116176115fa565b5b83861115611629576116286115ff565b5b6001850283019150848603905094509492505050565b600081519050919050565b600082825260208201905092915050565b60005b8381101561167957808201518184015260208101905061165e565b60008484015250505050565b6000601f19601f8301169050919050565b60006116a18261163f565b6116ab818561164a565b93506116bb81856020860161165b565b6116c481611685565b840191505092915050565b600060408201905081810360008301526116e98185611696565b90506116f86020830184611066565b9392505050565b60006020820190506117146000830184611066565b92915050565b7f4e487b7100000000000000000000000000000000000000000000000000000000600052603260045260246000fd5b82818337600083830152505050565b6000611764838561164a565b9350611771838584611749565b61177a83611685565b840190509392505050565b600060608201905061179a6000830187611066565b81810360208301526117ac8186611696565b905081810360408301526117c1818486611758565b905095945050505050565b7f76657269667920343834342d70726f6f66206661696c65640000000000000000600082015250565b60006118026018836113ef565b915061180d826117cc565b602082019050919050565b60006020820190508181036000830152611831816117f5565b9050919050565b600081905092915050565b600061184e8261163f565b6118588185611838565b935061186881856020860161165b565b80840191505092915050565b60006118808385611838565b935061188d838584611749565b82840190509392505050565b60006118a58287611584565b6020820191506118b58286611843565b91506118c2828486611874565b915081905095945050505050565b60006040820190506118e56000830185611130565b6118f260208301846112d0565b9392505050565b6119028161105c565b811461190d57600080fd5b50565b6000813561191d816118f9565b80915050919050565b60008160001b9050919050565b60007fffffffffffffffffffffffffffffffffffffffffffffffffffffffffffffffff61195f84611926565b9350801983169250808416831791505092915050565b60006119808261105c565b9050919050565b60008160001c9050919050565b600061199f82611987565b9050919050565b6119af82611975565b6119c26119bb82611994565b8354611933565b8255505050565b6000810160008301806119db81611910565b90506119e781846119a6565b5050506001810160208301806119fc81611910565b9050611a0881846119a6565b505050600281016040830180611a1d81611910565b9050611a2981846119a6565b505050600381016060830180611a3e81611910565b9050611a4a81846119a6565b505050600481016080830180611a5f81611910565b9050611a6b81846119a6565b5050505050565b611a7c82826119c9565b5050565b7f4f776e61626c653a206e6577206f776e657220697320746865207a65726f206160008201527f6464726573730000000000000000000000000000000000000000000000000000602082015250565b6000611adc6026836113ef565b9150611ae782611a80565b604082019050919050565b60006020820190508181036000830152611b0b81611acf565b9050919050565b600081519050919050565b6000611b2882611b12565b611b3281856113ef565b9350611b4281856020860161165b565b611b4b81611685565b840191505092915050565b60006020820190508181036000830152611b708184611b1d565b905092915050565b60006020820190508181036000830152611b928184611696565b905092915050565b7f4f776e61626c653a2063616c6c6572206973206e6f7420746865206f776e6572600082015250565b6000611bd06020836113ef565b9150611bdb82611b9a565b602082019050919050565b60006020820190508181036000830152611bff81611bc3565b9050919050565b7f4e487b7100000000000000000000000000000000000000000000000000000000600052605160045260246000fdfea2646970667358221220702cde519560da3c180867a9466ffe1b8618bd3c6d0737ba88b025f5433f018f64736f6c63430008180033",
  "linkReferences": {},
  "deployedLinkReferences": {}
}