{
  "_format": "hh-sol-artifact-1",
  "contractName": "ZkEvmVerifierV1",
  "sourceName": "contracts/libs/ZkEvmVerifierV1.sol",
  "abi": [
    {
      "inputs": [
        {
          "internalType": "address",
          "name": "_verifier",
          "type": "address"
        }
      ],
      "stateMutability": "nonpayable",
      "type": "constructor"
    },
    {
      "inputs": [],
      "name": "VerificationFailed",
      "type": "error"
    },
    {
      "inputs": [],
      "name": "plonkVerifier",
      "outputs": [
        {
          "internalType": "address",
          "name": "",
          "type": "address"
        }
      ],
      "stateMutability": "view",
      "type": "function"
    },
    {
      "inputs": [
        {
          "internalType": "bytes",
          "name": "aggrProof",
          "type": "bytes"
        },
        {
          "internalType": "bytes32",
          "name": "publicInputHash",
          "type": "bytes32"
        }
      ],
      "name": "verify",
      "outputs": [],
      "stateMutability": "view",
      "type": "function"
    }
  ],
  "bytecode": "0x60a060405234801561001057600080fd5b50604051610405380380610405833981810160405281019061003291906100cf565b8073ffffffffffffffffffffffffffffffffffffffff1660808173ffffffffffffffffffffffffffffffffffffffff1681525050506100fc565b600080fd5b600073ffffffffffffffffffffffffffffffffffffffff82169050919050565b600061009c82610071565b9050919050565b6100ac81610091565b81146100b757600080fd5b50565b6000815190506100c9816100a3565b92915050565b6000602082840312156100e5576100e461006c565b5b60006100f3848285016100ba565b91505092915050565b6080516102e861011d600039600081816079015261012f01526102e86000f3fe608060405234801561001057600080fd5b50600436106100365760003560e01c80636b4063411461003b578063e4886e5014610057575b600080fd5b610055600480360381019061005091906101f6565b610075565b005b61005f61012d565b60405161006c9190610297565b60405180910390f35b60007f00000000000000000000000000000000000000000000000000000000000000009050600060405161018086823760005b6104008110156100cf5760ff851681610560038301528460081c94506020810190506100a8565b5061018085036101808701610580830137600080610400870183865afa91505080610126576040517f439cc0cd00000000000000000000000000000000000000000000000000000000815260040160405180910390fd5b5050505050565b7f000000000000000000000000000000000000000000000000000000000000000081565b600080fd5b600080fd5b600080fd5b600080fd5b600080fd5b60008083601f8401126101805761017f61015b565b5b8235905067ffffffffffffffff81111561019d5761019c610160565b5b6020830191508360018202830111156101b9576101b8610165565b5b9250929050565b6000819050919050565b6101d3816101c0565b81146101de57600080fd5b50565b6000813590506101f0816101ca565b92915050565b60008060006040848603121561020f5761020e610151565b5b600084013567ffffffffffffffff81111561022d5761022c610156565b5b6102398682870161016a565b9350935050602061024c868287016101e1565b9150509250925092565b600073ffffffffffffffffffffffffffffffffffffffff82169050919050565b600061028182610256565b9050919050565b61029181610276565b82525050565b60006020820190506102ac6000830184610288565b9291505056fea2646970667358221220ebf835893bfa4fe0985b4698f396166b1cac0ec75fa7124160c101d3bef8c8e764736f6c63430008180033",
  "linkReferences": {},
  "deployedLinkReferences": {}
}